{
  "contractName": "CarbonWatch",
  "abi": [
    {
      "anonymous": false,
      "inputs": [
        {
          "indexed": true,
          "internalType": "address",
          "name": "user",
          "type": "address"
        },
        {
          "indexed": false,
          "internalType": "uint256",
          "name": "electricityUsage",
          "type": "uint256"
        },
        {
          "indexed": false,
          "internalType": "uint256",
          "name": "waterUsage",
          "type": "uint256"
        },
        {
          "indexed": false,
          "internalType": "uint256",
          "name": "gasUsage",
          "type": "uint256"
        },
        {
          "indexed": false,
          "internalType": "uint256",
          "name": "fuelUsage",
          "type": "uint256"
        },
        {
          "indexed": false,
          "internalType": "uint256",
          "name": "wasteGeneration",
          "type": "uint256"
        },
        {
          "indexed": false,
          "internalType": "uint256",
          "name": "vehicleDistance",
          "type": "uint256"
        },
        {
          "indexed": false,
          "internalType": "uint256",
          "name": "carbonEmission",
          "type": "uint256"
        },
        {
          "indexed": false,
          "internalType": "uint256",
          "name": "timestamp",
          "type": "uint256"
        }
      ],
      "name": "MetricLogged",
      "type": "event"
    },
    {
      "inputs": [
        {
          "internalType": "address",
          "name": "",
          "type": "address"
        },
        {
          "internalType": "uint256",
          "name": "",
          "type": "uint256"
        }
      ],
      "name": "metrics",
      "outputs": [
        {
          "internalType": "uint256",
          "name": "electricityUsage",
          "type": "uint256"
        },
        {
          "internalType": "uint256",
          "name": "waterUsage",
          "type": "uint256"
        },
        {
          "internalType": "uint256",
          "name": "gasUsage",
          "type": "uint256"
        },
        {
          "internalType": "uint256",
          "name": "fuelUsage",
          "type": "uint256"
        },
        {
          "internalType": "uint256",
          "name": "wasteGeneration",
          "type": "uint256"
        },
        {
          "internalType": "uint256",
          "name": "vehicleDistance",
          "type": "uint256"
        },
        {
          "internalType": "uint256",
          "name": "carbonEmission",
          "type": "uint256"
        },
        {
          "internalType": "uint256",
          "name": "timestamp",
          "type": "uint256"
        }
      ],
      "stateMutability": "view",
      "type": "function",
      "constant": true
    },
    {
      "inputs": [
        {
          "internalType": "uint256",
          "name": "_electricityUsage",
          "type": "uint256"
        },
        {
          "internalType": "uint256",
          "name": "_waterUsage",
          "type": "uint256"
        },
        {
          "internalType": "uint256",
          "name": "_gasUsage",
          "type": "uint256"
        },
        {
          "internalType": "uint256",
          "name": "_fuelUsage",
          "type": "uint256"
        },
        {
          "internalType": "uint256",
          "name": "_wasteGeneration",
          "type": "uint256"
        },
        {
          "internalType": "uint256",
          "name": "_vehicleDistance",
          "type": "uint256"
        }
      ],
      "name": "logMetrics",
      "outputs": [],
      "stateMutability": "nonpayable",
      "type": "function"
    },
    {
      "inputs": [
        {
          "internalType": "address",
          "name": "_user",
          "type": "address"
        }
      ],
      "name": "getMetricCount",
      "outputs": [
        {
          "internalType": "uint256",
          "name": "",
          "type": "uint256"
        }
      ],
      "stateMutability": "view",
      "type": "function",
      "constant": true
    },
    {
      "inputs": [
        {
          "internalType": "address",
          "name": "_user",
          "type": "address"
        },
        {
          "internalType": "uint256",
          "name": "_index",
          "type": "uint256"
        }
      ],
      "name": "getMetric",
      "outputs": [
        {
          "components": [
            {
              "internalType": "uint256",
              "name": "electricityUsage",
              "type": "uint256"
            },
            {
              "internalType": "uint256",
              "name": "waterUsage",
              "type": "uint256"
            },
            {
              "internalType": "uint256",
              "name": "gasUsage",
              "type": "uint256"
            },
            {
              "internalType": "uint256",
              "name": "fuelUsage",
              "type": "uint256"
            },
            {
              "internalType": "uint256",
              "name": "wasteGeneration",
              "type": "uint256"
            },
            {
              "internalType": "uint256",
              "name": "vehicleDistance",
              "type": "uint256"
            },
            {
              "internalType": "uint256",
              "name": "carbonEmission",
              "type": "uint256"
            },
            {
              "internalType": "uint256",
              "name": "timestamp",
              "type": "uint256"
            }
          ],
          "internalType": "struct CarbonWatch.HouseholdMetric",
          "name": "",
          "type": "tuple"
        }
      ],
      "stateMutability": "view",
      "type": "function",
      "constant": true
    }
  ],
  "bytecode": "0x608060405234801561001057600080fd5b50610a97806100206000396000f3fe608060405234801561001057600080fd5b506004361061004c5760003560e01c80632bedf8cb1461005157806333f540b01461006d578063f739bcac146100a4578063fa71fb3f146100d4575b600080fd5b61006b60048036038101906100669190610649565b610104565b005b6100876004803603810190610082919061060d565b610352565b60405161009b989796959493929190610829565b60405180910390f35b6100be60048036038101906100b9919061060d565b6103b7565b6040516100cb91906107f2565b60405180910390f35b6100ee60048036038101906100e991906105e4565b61052a565b6040516100fb919061080e565b60405180910390f35b60006103e860e988610116919061093f565b610120919061090e565b90506000612710600f88610134919061093f565b61013e919061090e565b90506000606460bd88610151919061093f565b61015b919061090e565b90506000606460fc8861016e919061093f565b610178919061090e565b905060006103e86101f48861018d919061093f565b610197919061090e565b905060006103e8610194886101ac919061093f565b6101b6919061090e565b9050600081838587898b6101ca91906108b8565b6101d491906108b8565b6101de91906108b8565b6101e891906108b8565b6101f291906108b8565b90506000803373ffffffffffffffffffffffffffffffffffffffff1673ffffffffffffffffffffffffffffffffffffffff1681526020019081526020016000206040518061010001604052808f81526020018e81526020018d81526020018c81526020018b81526020018a8152602001838152602001428152509080600181540180825580915050600190039060005260206000209060080201600090919091909150600082015181600001556020820151816001015560408201518160020155606082015181600301556080820151816004015560a0820151816005015560c0820151816006015560e0820151816007015550503373ffffffffffffffffffffffffffffffffffffffff167f290486168462ff6087b4a049fd06254eec71a9135f56080a166ebebe8b183ac18e8e8e8e8e8e884260405161033b989796959493929190610829565b60405180910390a250505050505050505050505050565b6000602052816000526040600020818154811061036e57600080fd5b9060005260206000209060080201600091509150508060000154908060010154908060020154908060030154908060040154908060050154908060060154908060070154905088565b6103bf610575565b6000808473ffffffffffffffffffffffffffffffffffffffff1673ffffffffffffffffffffffffffffffffffffffff168152602001908152602001600020805490508210610442576040517f08c379a0000000000000000000000000000000000000000000000000000000008152600401610439906107d2565b60405180910390fd5b6000808473ffffffffffffffffffffffffffffffffffffffff1673ffffffffffffffffffffffffffffffffffffffff16815260200190815260200160002082815481106104b8577f4e487b7100000000000000000000000000000000000000000000000000000000600052603260045260246000fd5b90600052602060002090600802016040518061010001604052908160008201548152602001600182015481526020016002820154815260200160038201548152602001600482015481526020016005820154815260200160068201548152602001600782015481525050905092915050565b60008060008373ffffffffffffffffffffffffffffffffffffffff1673ffffffffffffffffffffffffffffffffffffffff168152602001908152602001600020805490509050919050565b60405180610100016040528060008152602001600081526020016000815260200160008152602001600081526020016000815260200160008152602001600081525090565b6000813590506105c981610a33565b92915050565b6000813590506105de81610a4a565b92915050565b6000602082840312156105f657600080fd5b6000610604848285016105ba565b91505092915050565b6000806040838503121561062057600080fd5b600061062e858286016105ba565b925050602061063f858286016105cf565b9150509250929050565b60008060008060008060c0878903121561066257600080fd5b600061067089828a016105cf565b965050602061068189828a016105cf565b955050604061069289828a016105cf565b94505060606106a389828a016105cf565b93505060806106b489828a016105cf565b92505060a06106c589828a016105cf565b9150509295509295509295565b60006106df600d836108a7565b91507f496e76616c696420696e646578000000000000000000000000000000000000006000830152602082019050919050565b6101008201600082015161072960008501826107b4565b50602082015161073c60208501826107b4565b50604082015161074f60408501826107b4565b50606082015161076260608501826107b4565b50608082015161077560808501826107b4565b5060a082015161078860a08501826107b4565b5060c082015161079b60c08501826107b4565b5060e08201516107ae60e08501826107b4565b50505050565b6107bd816109cb565b82525050565b6107cc816109cb565b82525050565b600060208201905081810360008301526107eb816106d2565b9050919050565b6000610100820190506108086000830184610712565b92915050565b600060208201905061082360008301846107c3565b92915050565b60006101008201905061083f600083018b6107c3565b61084c602083018a6107c3565b61085960408301896107c3565b61086660608301886107c3565b61087360808301876107c3565b61088060a08301866107c3565b61088d60c08301856107c3565b61089a60e08301846107c3565b9998505050505050505050565b600082825260208201905092915050565b60006108c3826109cb565b91506108ce836109cb565b9250827fffffffffffffffffffffffffffffffffffffffffffffffffffffffffffffffff03821115610903576109026109d5565b5b828201905092915050565b6000610919826109cb565b9150610924836109cb565b92508261093457610933610a04565b5b828204905092915050565b600061094a826109cb565b9150610955836109cb565b9250817fffffffffffffffffffffffffffffffffffffffffffffffffffffffffffffffff048311821515161561098e5761098d6109d5565b5b828202905092915050565b60006109a4826109ab565b9050919050565b600073ffffffffffffffffffffffffffffffffffffffff82169050919050565b6000819050919050565b7f4e487b7100000000000000000000000000000000000000000000000000000000600052601160045260246000fd5b7f4e487b7100000000000000000000000000000000000000000000000000000000600052601260045260246000fd5b610a3c81610999565b8114610a4757600080fd5b50565b610a53816109cb565b8114610a5e57600080fd5b5056fea26469706673582212209b479cef5a9b181f9f00c4139d8f2a25912299dbe1f22921932fee0165dfcfff64736f6c63430008000033",
  "immutableReferences": {},
  "source": "// SPDX-License-Identifier: MIT\npragma solidity ^0.8.0;\n\ncontract CarbonWatch {\n\n    // Struct to store household metrics\n    struct HouseholdMetric {\n        uint256 electricityUsage;  // Electricity usage in kWh\n        uint256 waterUsage;        // Water usage in liters\n        uint256 gasUsage;          // Natural gas usage in cubic meters\n        uint256 fuelUsage;         // Fuel usage in liters (for heating or cooking)\n        uint256 wasteGeneration;   // Waste generated in kg\n        uint256 vehicleDistance;   // Vehicle distance driven in miles\n        uint256 carbonEmission;    // Total calculated carbon emission (in kg of CO2)\n        uint256 timestamp;         // Time of the logged data\n    }\n\n    // Mapping from user address to their household metrics\n    mapping(address => HouseholdMetric[]) public metrics;\n\n    // Event to emit when a new metric is logged\n    event MetricLogged(\n        address indexed user, \n        uint256 electricityUsage, \n        uint256 waterUsage, \n        uint256 gasUsage, \n        uint256 fuelUsage, \n        uint256 wasteGeneration, \n        uint256 vehicleDistance, \n        uint256 carbonEmission, \n        uint256 timestamp\n    );\n\n    // Function to log all household metrics and calculate carbon emission\n    function logMetrics(\n        uint256 _electricityUsage,  // kWh\n        uint256 _waterUsage,        // Liters\n        uint256 _gasUsage,          // m\n        uint256 _fuelUsage,         // Liters\n        uint256 _wasteGeneration,   // kg\n        uint256 _vehicleDistance    // Miles\n    ) external {\n        // Calculate individual carbon emissions\n        uint256 electricityEmission = _electricityUsage * 233 / 1000; // 1 kWh = 0.233 kg CO2\n        uint256 waterEmission = _waterUsage * 15 / 10000;             // 1 liter = 0.0015 kg CO2\n        uint256 gasEmission = _gasUsage * 189 / 100;                  // 1 m = 1.89 kg CO2\n        uint256 fuelEmission = _fuelUsage * 252 / 100;                // 1 liter = 2.52 kg CO2\n        uint256 wasteEmission = _wasteGeneration * 500 / 1000;        // 1 kg of waste (general assumption) = 0.5 kg CO2\n        uint256 vehicleEmission = _vehicleDistance * 404 / 1000;      // 1 mile driven (average car) = 0.404 kg CO2\n\n        // Total carbon emission\n        uint256 totalCarbonEmission = electricityEmission \n                                    + waterEmission \n                                    + gasEmission \n                                    + fuelEmission \n                                    + wasteEmission \n                                    + vehicleEmission;\n\n        // Store the metrics for the caller (user)\n        metrics[msg.sender].push(HouseholdMetric({\n            electricityUsage: _electricityUsage,\n            waterUsage: _waterUsage,\n            gasUsage: _gasUsage,\n            fuelUsage: _fuelUsage,\n            wasteGeneration: _wasteGeneration,\n            vehicleDistance: _vehicleDistance,\n            carbonEmission: totalCarbonEmission,\n            timestamp: block.timestamp\n        }));\n\n        // Emit the event\n        emit MetricLogged(\n            msg.sender, \n            _electricityUsage, \n            _waterUsage, \n            _gasUsage, \n            _fuelUsage, \n            _wasteGeneration, \n            _vehicleDistance, \n            totalCarbonEmission, \n            block.timestamp\n        );\n    }\n\n    // Function to retrieve the number of metrics logged by a user\n    function getMetricCount(address _user) external view returns (uint256) {\n        return metrics[_user].length;\n    }\n\n    // Function to retrieve a specific metric by index\n    function getMetric(address _user, uint256 _index) external view returns (HouseholdMetric memory) {\n        require(_index < metrics[_user].length, \"Invalid index\");\n        return metrics[_user][_index];\n    }\n}",
  "sourcePath": "/Users/yannvallery-radot/dev/yannvr/carbon-watch/contracts/carbon-watch.sol",
  "compiler": {
    "name": "solc",
    "version": "0.8.0+commit.c7dfd78e.Emscripten.clang"
  },
  "schemaVersion": "3.4.16",
  "updatedAt": "2024-09-05T23:22:19.424Z",
  "networkType": "ethereum",
  "devdoc": {
    "kind": "dev",
    "methods": {},
    "version": 1
  },
  "userdoc": {
    "kind": "user",
    "methods": {},
    "version": 1
  }
}